{
  "contractName": "AnconToken",
  "abi": [
    {
      "anonymous": false,
      "inputs": [
        {
          "indexed": false,
          "internalType": "uint256",
          "name": "amount",
          "type": "uint256"
        },
        {
          "indexed": false,
          "internalType": "address",
          "name": "wallet",
          "type": "address"
        },
        {
          "indexed": false,
          "internalType": "uint256",
          "name": "restrictedUntil",
          "type": "uint256"
        }
      ],
      "name": "AddedStakeHolder",
      "type": "event"
    },
    {
      "anonymous": false,
      "inputs": [
        {
          "indexed": true,
          "internalType": "address",
          "name": "owner",
          "type": "address"
        },
        {
          "indexed": true,
          "internalType": "address",
          "name": "spender",
          "type": "address"
        },
        {
          "indexed": false,
          "internalType": "uint256",
          "name": "value",
          "type": "uint256"
        }
      ],
      "name": "Approval",
      "type": "event"
    },
    {
      "anonymous": false,
      "inputs": [
        {
          "indexed": true,
          "internalType": "address",
          "name": "previousOwner",
          "type": "address"
        },
        {
          "indexed": true,
          "internalType": "address",
          "name": "newOwner",
          "type": "address"
        }
      ],
      "name": "OwnershipTransferred",
      "type": "event"
    },
    {
      "anonymous": false,
      "inputs": [
        {
          "indexed": true,
          "internalType": "address",
          "name": "from",
          "type": "address"
        },
        {
          "indexed": true,
          "internalType": "address",
          "name": "to",
          "type": "address"
        },
        {
          "indexed": false,
          "internalType": "uint256",
          "name": "value",
          "type": "uint256"
        }
      ],
      "name": "Transfer",
      "type": "event"
    },
    {
      "inputs": [
        {
          "internalType": "address",
          "name": "owner",
          "type": "address"
        },
        {
          "internalType": "address",
          "name": "spender",
          "type": "address"
        }
      ],
      "name": "allowance",
      "outputs": [
        {
          "internalType": "uint256",
          "name": "",
          "type": "uint256"
        }
      ],
      "stateMutability": "view",
      "type": "function",
      "constant": true
    },
    {
      "inputs": [
        {
          "internalType": "address",
          "name": "spender",
          "type": "address"
        },
        {
          "internalType": "uint256",
          "name": "amount",
          "type": "uint256"
        }
      ],
      "name": "approve",
      "outputs": [
        {
          "internalType": "bool",
          "name": "",
          "type": "bool"
        }
      ],
      "stateMutability": "nonpayable",
      "type": "function"
    },
    {
      "inputs": [
        {
          "internalType": "address",
          "name": "account",
          "type": "address"
        }
      ],
      "name": "balanceOf",
      "outputs": [
        {
          "internalType": "uint256",
          "name": "",
          "type": "uint256"
        }
      ],
      "stateMutability": "view",
      "type": "function",
      "constant": true
    },
    {
      "inputs": [],
      "name": "decimals",
      "outputs": [
        {
          "internalType": "uint8",
          "name": "",
          "type": "uint8"
        }
      ],
      "stateMutability": "view",
      "type": "function",
      "constant": true
    },
    {
      "inputs": [
        {
          "internalType": "address",
          "name": "spender",
          "type": "address"
        },
        {
          "internalType": "uint256",
          "name": "subtractedValue",
          "type": "uint256"
        }
      ],
      "name": "decreaseAllowance",
      "outputs": [
        {
          "internalType": "bool",
          "name": "",
          "type": "bool"
        }
      ],
      "stateMutability": "nonpayable",
      "type": "function"
    },
    {
      "inputs": [
        {
          "internalType": "address",
          "name": "",
          "type": "address"
        }
      ],
      "name": "distribution",
      "outputs": [
        {
          "internalType": "uint256",
          "name": "restrictedUntil",
          "type": "uint256"
        },
        {
          "internalType": "uint256",
          "name": "amount",
          "type": "uint256"
        }
      ],
      "stateMutability": "view",
      "type": "function",
      "constant": true
    },
    {
      "inputs": [
        {
          "internalType": "address",
          "name": "spender",
          "type": "address"
        },
        {
          "internalType": "uint256",
          "name": "addedValue",
          "type": "uint256"
        }
      ],
      "name": "increaseAllowance",
      "outputs": [
        {
          "internalType": "bool",
          "name": "",
          "type": "bool"
        }
      ],
      "stateMutability": "nonpayable",
      "type": "function"
    },
    {
      "inputs": [],
      "name": "name",
      "outputs": [
        {
          "internalType": "string",
          "name": "",
          "type": "string"
        }
      ],
      "stateMutability": "view",
      "type": "function",
      "constant": true
    },
    {
      "inputs": [],
      "name": "owner",
      "outputs": [
        {
          "internalType": "address",
          "name": "",
          "type": "address"
        }
      ],
      "stateMutability": "view",
      "type": "function",
      "constant": true
    },
    {
      "inputs": [],
      "name": "renounceOwnership",
      "outputs": [],
      "stateMutability": "nonpayable",
      "type": "function"
    },
    {
      "inputs": [],
      "name": "symbol",
      "outputs": [
        {
          "internalType": "string",
          "name": "",
          "type": "string"
        }
      ],
      "stateMutability": "view",
      "type": "function",
      "constant": true
    },
    {
      "inputs": [],
      "name": "totalSupply",
      "outputs": [
        {
          "internalType": "uint256",
          "name": "",
          "type": "uint256"
        }
      ],
      "stateMutability": "view",
      "type": "function",
      "constant": true
    },
    {
      "inputs": [
        {
          "internalType": "address",
          "name": "recipient",
          "type": "address"
        },
        {
          "internalType": "uint256",
          "name": "amount",
          "type": "uint256"
        }
      ],
      "name": "transfer",
      "outputs": [
        {
          "internalType": "bool",
          "name": "",
          "type": "bool"
        }
      ],
      "stateMutability": "nonpayable",
      "type": "function"
    },
    {
      "inputs": [
        {
          "internalType": "address",
          "name": "sender",
          "type": "address"
        },
        {
          "internalType": "address",
          "name": "recipient",
          "type": "address"
        },
        {
          "internalType": "uint256",
          "name": "amount",
          "type": "uint256"
        }
      ],
      "name": "transferFrom",
      "outputs": [
        {
          "internalType": "bool",
          "name": "",
          "type": "bool"
        }
      ],
      "stateMutability": "nonpayable",
      "type": "function"
    },
    {
      "inputs": [
        {
          "internalType": "address",
          "name": "newOwner",
          "type": "address"
        }
      ],
      "name": "transferOwnership",
      "outputs": [],
      "stateMutability": "nonpayable",
      "type": "function"
    },
    {
      "inputs": [
        {
          "internalType": "uint8",
          "name": "",
          "type": "uint8"
        }
      ],
      "name": "types",
      "outputs": [
        {
          "internalType": "uint256",
          "name": "",
          "type": "uint256"
        }
      ],
      "stateMutability": "view",
      "type": "function",
      "constant": true
    },
    {
      "inputs": [],
      "name": "initialize",
      "outputs": [],
      "stateMutability": "nonpayable",
      "type": "function"
    },
    {
      "inputs": [
        {
          "internalType": "address[]",
          "name": "wallets",
          "type": "address[]"
        },
        {
          "internalType": "uint256[]",
          "name": "amounts",
          "type": "uint256[]"
        },
        {
          "internalType": "uint8[]",
          "name": "shTypeIndexes",
          "type": "uint8[]"
        }
      ],
      "name": "addStakeHolders",
      "outputs": [],
      "stateMutability": "nonpayable",
      "type": "function"
    },
    {
      "inputs": [
        {
          "internalType": "address",
          "name": "address_",
          "type": "address"
        },
        {
          "internalType": "uint256",
          "name": "amount",
          "type": "uint256"
        }
      ],
      "name": "mintToWallet",
      "outputs": [],
      "stateMutability": "payable",
      "type": "function",
      "payable": true
    },
    {
      "inputs": [
        {
          "internalType": "address",
          "name": "address_",
          "type": "address"
        },
        {
          "internalType": "uint256",
          "name": "amount",
          "type": "uint256"
        }
      ],
      "name": "burnToken",
      "outputs": [],
      "stateMutability": "payable",
      "type": "function",
      "payable": true
    }
  ],
  "bytecode": "0x608060405234801561001057600080fd5b50611baf806100206000396000f3fe60806040526004361061015f5760003560e01c80638da5cb5b116100c0578063c2db09c111610074578063dd62ed3e11610059578063dd62ed3e146103c2578063f2fde38b14610408578063fcb6c2631461042857600080fd5b8063c2db09c114610366578063d1df306c146103af57600080fd5b80639e64ab1f116100a55780639e64ab1f14610306578063a457c2d714610326578063a9059cbb1461034657600080fd5b80638da5cb5b146102c957806395d89b41146102f157600080fd5b8063395093511161011757806370a08231116100fc57806370a0823114610267578063715018a61461029d5780638129fc1c146102b457600080fd5b8063395093511461021a57806359e2efcc1461023a57600080fd5b806318160ddd1161014857806318160ddd146101bf57806323b872dd146101de578063313ce567146101fe57600080fd5b806306fdde0314610164578063095ea7b31461018f575b600080fd5b34801561017057600080fd5b5061017961043b565b6040516101869190611754565b60405180910390f35b34801561019b57600080fd5b506101af6101aa3660046117c5565b6104cd565b6040519015158152602001610186565b3480156101cb57600080fd5b506035545b604051908152602001610186565b3480156101ea57600080fd5b506101af6101f93660046117ef565b6104e3565b34801561020a57600080fd5b5060405160128152602001610186565b34801561022657600080fd5b506101af6102353660046117c5565b6105a7565b34801561024657600080fd5b506101d061025536600461183c565b60986020526000908152604090205481565b34801561027357600080fd5b506101d061028236600461185e565b6001600160a01b031660009081526033602052604090205490565b3480156102a957600080fd5b506102b26105e3565b005b3480156102c057600080fd5b506102b2610649565b3480156102d557600080fd5b506065546040516001600160a01b039091168152602001610186565b3480156102fd57600080fd5b506101796107e7565b34801561031257600080fd5b506102b26103213660046119b1565b6107f6565b34801561033257600080fd5b506101af6103413660046117c5565b610a6c565b34801561035257600080fd5b506101af6103613660046117c5565b610b1d565b34801561037257600080fd5b5061039a61038136600461185e565b6097602052600090815260409020805460019091015482565b60408051928352602083019190915201610186565b6102b26103bd3660046117c5565b610b2a565b3480156103ce57600080fd5b506101d06103dd366004611a95565b6001600160a01b03918216600090815260346020908152604080832093909416825291909152205490565b34801561041457600080fd5b506102b261042336600461185e565b610b92565b6102b26104363660046117c5565b610c71565b60606036805461044a90611ac8565b80601f016020809104026020016040519081016040528092919081815260200182805461047690611ac8565b80156104c35780601f10610498576101008083540402835291602001916104c3565b820191906000526020600020905b8154815290600101906020018083116104a657829003601f168201915b5050505050905090565b60006104da338484610cd5565b50600192915050565b60006104f0848484610e2d565b6001600160a01b03841660009081526034602090815260408083203384529091529020548281101561058f5760405162461bcd60e51b815260206004820152602860248201527f45524332303a207472616e7366657220616d6f756e742065786365656473206160448201527f6c6c6f77616e636500000000000000000000000000000000000000000000000060648201526084015b60405180910390fd5b61059c8533858403610cd5565b506001949350505050565b3360008181526034602090815260408083206001600160a01b038716845290915281205490916104da9185906105de908690611b19565b610cd5565b6065546001600160a01b0316331461063d5760405162461bcd60e51b815260206004820181905260248201527f4f776e61626c653a2063616c6c6572206973206e6f7420746865206f776e65726044820152606401610586565b6106476000611044565b565b600054610100900460ff1680610662575060005460ff16155b6106c55760405162461bcd60e51b815260206004820152602e60248201527f496e697469616c697a61626c653a20636f6e747261637420697320616c72656160448201526d191e481a5b9a5d1a585b1a5e995960921b6064820152608401610586565b600054610100900460ff161580156106e7576000805461ffff19166101011790555b61075b6040518060400160405280600b81526020017f416e636f6e20546f6b656e0000000000000000000000000000000000000000008152506040518060400160405280600581526020017f414e434f4e0000000000000000000000000000000000000000000000000000008152506110ae565b610763611175565b609860205262ed4e007fe66b7f18a15fed257e722ee4e0b46d479842712099771fae6234a4975b3be6fa5560026000526276a7007ffd16fc8d5a980cfe9c4de8806ae90ed1cbb06071ef932dd581a595eff814ae3855426099556107d2336a01a784379d99db42000000611223565b80156107e4576000805461ff00191690555b50565b60606037805461044a90611ac8565b6065546001600160a01b031633146108505760405162461bcd60e51b815260206004820181905260248201527f4f776e61626c653a2063616c6c6572206973206e6f7420746865206f776e65726044820152606401610586565b81518351148015610862575080518351145b801561086f575080518251145b6108e15760405162461bcd60e51b815260206004820152602e60248201527f57616c6c6574732c20616d6f756e74732c20696e6465786573206c656e67746860448201527f2061726520646966666572656e740000000000000000000000000000000000006064820152608401610586565b60005b8351811015610a6657600084828151811061090157610901611b31565b60200260200101519050600084838151811061091f5761091f611b31565b60200260200101519050600084848151811061093d5761093d611b31565b60200260200101519050609860008260ff1660ff16815260200190815260200160002054600014156109b15760405162461bcd60e51b815260206004820152601560248201527f5374616b65486f6c646572206e6f7420666f756e6400000000000000000000006044820152606401610586565b60ff81166000908152609860205260408120546099549091906109d5908390611b19565b60408051808201825282815260208082018881526001600160a01b038a166000818152609784528590208451815591516001909201919091558351898152918201529182018390529192507fe8ad5d56185772d63c5e61bc993291f7550b447400509cfa89997a5b8db2b3ec9060600160405180910390a15050505050508080610a5e90611b47565b9150506108e4565b50505050565b3360009081526034602090815260408083206001600160a01b038616845290915281205482811015610b065760405162461bcd60e51b815260206004820152602560248201527f45524332303a2064656372656173656420616c6c6f77616e63652062656c6f7760448201527f207a65726f0000000000000000000000000000000000000000000000000000006064820152608401610586565b610b133385858403610cd5565b5060019392505050565b60006104da338484610e2d565b6065546001600160a01b03163314610b845760405162461bcd60e51b815260206004820181905260248201527f4f776e61626c653a2063616c6c6572206973206e6f7420746865206f776e65726044820152606401610586565b610b8e8282611302565b5050565b6065546001600160a01b03163314610bec5760405162461bcd60e51b815260206004820181905260248201527f4f776e61626c653a2063616c6c6572206973206e6f7420746865206f776e65726044820152606401610586565b6001600160a01b038116610c685760405162461bcd60e51b815260206004820152602660248201527f4f776e61626c653a206e6577206f776e657220697320746865207a65726f206160448201527f64647265737300000000000000000000000000000000000000000000000000006064820152608401610586565b6107e481611044565b6065546001600160a01b03163314610ccb5760405162461bcd60e51b815260206004820181905260248201527f4f776e61626c653a2063616c6c6572206973206e6f7420746865206f776e65726044820152606401610586565b610b8e8282611223565b6001600160a01b038316610d505760405162461bcd60e51b8152602060048201526024808201527f45524332303a20617070726f76652066726f6d20746865207a65726f2061646460448201527f72657373000000000000000000000000000000000000000000000000000000006064820152608401610586565b6001600160a01b038216610dcc5760405162461bcd60e51b815260206004820152602260248201527f45524332303a20617070726f766520746f20746865207a65726f20616464726560448201527f73730000000000000000000000000000000000000000000000000000000000006064820152608401610586565b6001600160a01b0383811660008181526034602090815260408083209487168084529482529182902085905590518481527f8c5be1e5ebec7d5bd14f71427d1e84f3dd0314c0f7b2291e5b200ac8c7c3b925910160405180910390a3505050565b6001600160a01b038316610ea95760405162461bcd60e51b815260206004820152602560248201527f45524332303a207472616e736665722066726f6d20746865207a65726f20616460448201527f64726573730000000000000000000000000000000000000000000000000000006064820152608401610586565b6001600160a01b038216610f255760405162461bcd60e51b815260206004820152602360248201527f45524332303a207472616e7366657220746f20746865207a65726f206164647260448201527f65737300000000000000000000000000000000000000000000000000000000006064820152608401610586565b6001600160a01b03831660009081526033602052604090205481811015610fb45760405162461bcd60e51b815260206004820152602660248201527f45524332303a207472616e7366657220616d6f756e742065786365656473206260448201527f616c616e636500000000000000000000000000000000000000000000000000006064820152608401610586565b6001600160a01b03808516600090815260336020526040808220858503905591851681529081208054849290610feb908490611b19565b92505081905550826001600160a01b0316846001600160a01b03167fddf252ad1be2c89b69c2b068fc378daa952ba7f163c4a11628f55a4df523b3ef8460405161103791815260200190565b60405180910390a3610a66565b606580546001600160a01b038381167fffffffffffffffffffffffff0000000000000000000000000000000000000000831681179093556040519116919082907f8be0079c531659141344cd1fd0a4f28419497f9722a3daafe3b4186f6b6457e090600090a35050565b600054610100900460ff16806110c7575060005460ff16155b61112a5760405162461bcd60e51b815260206004820152602e60248201527f496e697469616c697a61626c653a20636f6e747261637420697320616c72656160448201526d191e481a5b9a5d1a585b1a5e995960921b6064820152608401610586565b600054610100900460ff1615801561114c576000805461ffff19166101011790555b611154611487565b61115e8383611538565b8015611170576000805461ff00191690555b505050565b600054610100900460ff168061118e575060005460ff16155b6111f15760405162461bcd60e51b815260206004820152602e60248201527f496e697469616c697a61626c653a20636f6e747261637420697320616c72656160448201526d191e481a5b9a5d1a585b1a5e995960921b6064820152608401610586565b600054610100900460ff16158015611213576000805461ffff19166101011790555b61121b611487565b6107d2611614565b6001600160a01b0382166112795760405162461bcd60e51b815260206004820152601f60248201527f45524332303a206d696e7420746f20746865207a65726f2061646472657373006044820152606401610586565b806035600082825461128b9190611b19565b90915550506001600160a01b038216600090815260336020526040812080548392906112b8908490611b19565b90915550506040518181526001600160a01b038316906000907fddf252ad1be2c89b69c2b068fc378daa952ba7f163c4a11628f55a4df523b3ef9060200160405180910390a35050565b6001600160a01b03821661137e5760405162461bcd60e51b815260206004820152602160248201527f45524332303a206275726e2066726f6d20746865207a65726f2061646472657360448201527f73000000000000000000000000000000000000000000000000000000000000006064820152608401610586565b6001600160a01b0382166000908152603360205260409020548181101561140d5760405162461bcd60e51b815260206004820152602260248201527f45524332303a206275726e20616d6f756e7420657863656564732062616c616e60448201527f63650000000000000000000000000000000000000000000000000000000000006064820152608401610586565b6001600160a01b038316600090815260336020526040812083830390556035805484929061143c908490611b62565b90915550506040518281526000906001600160a01b038516907fddf252ad1be2c89b69c2b068fc378daa952ba7f163c4a11628f55a4df523b3ef9060200160405180910390a3505050565b600054610100900460ff16806114a0575060005460ff16155b6115035760405162461bcd60e51b815260206004820152602e60248201527f496e697469616c697a61626c653a20636f6e747261637420697320616c72656160448201526d191e481a5b9a5d1a585b1a5e995960921b6064820152608401610586565b600054610100900460ff161580156107d2576000805461ffff191661010117905580156107e4576000805461ff001916905550565b600054610100900460ff1680611551575060005460ff16155b6115b45760405162461bcd60e51b815260206004820152602e60248201527f496e697469616c697a61626c653a20636f6e747261637420697320616c72656160448201526d191e481a5b9a5d1a585b1a5e995960921b6064820152608401610586565b600054610100900460ff161580156115d6576000805461ffff19166101011790555b82516115e99060369060208601906116bb565b5081516115fd9060379060208501906116bb565b508015611170576000805461ff0019169055505050565b600054610100900460ff168061162d575060005460ff16155b6116905760405162461bcd60e51b815260206004820152602e60248201527f496e697469616c697a61626c653a20636f6e747261637420697320616c72656160448201526d191e481a5b9a5d1a585b1a5e995960921b6064820152608401610586565b600054610100900460ff161580156116b2576000805461ffff19166101011790555b6107d233611044565b8280546116c790611ac8565b90600052602060002090601f0160209004810192826116e9576000855561172f565b82601f1061170257805160ff191683800117855561172f565b8280016001018555821561172f579182015b8281111561172f578251825591602001919060010190611714565b5061173b92915061173f565b5090565b5b8082111561173b5760008155600101611740565b600060208083528351808285015260005b8181101561178157858101830151858201604001528201611765565b81811115611793576000604083870101525b50601f01601f1916929092016040019392505050565b80356001600160a01b03811681146117c057600080fd5b919050565b600080604083850312156117d857600080fd5b6117e1836117a9565b946020939093013593505050565b60008060006060848603121561180457600080fd5b61180d846117a9565b925061181b602085016117a9565b9150604084013590509250925092565b803560ff811681146117c057600080fd5b60006020828403121561184e57600080fd5b6118578261182b565b9392505050565b60006020828403121561187057600080fd5b611857826117a9565b634e487b7160e01b600052604160045260246000fd5b604051601f8201601f1916810167ffffffffffffffff811182821017156118b8576118b8611879565b604052919050565b600067ffffffffffffffff8211156118da576118da611879565b5060051b60200190565b600082601f8301126118f557600080fd5b8135602061190a611905836118c0565b61188f565b82815260059290921b8401810191818101908684111561192957600080fd5b8286015b84811015611944578035835291830191830161192d565b509695505050505050565b600082601f83011261196057600080fd5b81356020611970611905836118c0565b82815260059290921b8401810191818101908684111561198f57600080fd5b8286015b84811015611944576119a48161182b565b8352918301918301611993565b6000806000606084860312156119c657600080fd5b833567ffffffffffffffff808211156119de57600080fd5b818601915086601f8301126119f257600080fd5b81356020611a02611905836118c0565b82815260059290921b8401810191818101908a841115611a2157600080fd5b948201945b83861015611a4657611a37866117a9565b82529482019490820190611a26565b97505087013592505080821115611a5c57600080fd5b611a68878388016118e4565b93506040860135915080821115611a7e57600080fd5b50611a8b8682870161194f565b9150509250925092565b60008060408385031215611aa857600080fd5b611ab1836117a9565b9150611abf602084016117a9565b90509250929050565b600181811c90821680611adc57607f821691505b60208210811415611afd57634e487b7160e01b600052602260045260246000fd5b50919050565b634e487b7160e01b600052601160045260246000fd5b60008219821115611b2c57611b2c611b03565b500190565b634e487b7160e01b600052603260045260246000fd5b6000600019821415611b5b57611b5b611b03565b5060010190565b600082821015611b7457611b74611b03565b50039056fea264697066735822122045acfcae17d0ac18d2716050ba40da3f1b301e18f8bc8054f4a297e865006dab64736f6c634300080b0033",
  "immutableReferences": {},
  "source": "// SPDX-License-Identifier: MIT\n\n//** Standard ERC20 - Ancon Token */\n//** Author IFESA : Ancon Protocol 2022 */\n\npragma solidity ^0.8.7;\n\n//** remove previous contract and create standard ERC20 contract */\nimport \"@openzeppelin/contracts-upgradeable/access/OwnableUpgradeable.sol\";\nimport \"@openzeppelin/contracts-upgradeable/token/ERC20/ERC20Upgradeable.sol\";\n\nstruct DistrubutionDetails {\n    uint256 restrictedUntil;\n    uint256 amount;\n}\n\ncontract AnconToken is ERC20Upgradeable, OwnableUpgradeable {\n    \n    event AddedStakeHolder (\n        uint256 amount,\n        address wallet,\n        uint256 restrictedUntil\n    );\n\n    /**\n        distribution: wallet => DistrubutionDetails\n        type 1. staff: 6 months\n        type 2. advisors: 3 months\n    */ \n    \n    mapping (address => DistrubutionDetails) public distribution;\n\n    mapping (uint8 => uint256) public types;\n    uint256 releaseDate;\n\n    function initialize() public initializer {\n        __ERC20_init('Ancon Token', 'ANCON');\n        __Ownable_init();\n        types[1] = 180 days;\n        types[2] = 90 days;\n        releaseDate = block.timestamp;\n        _mint(msg.sender, 2000000 ether);\n    }\n\n    function addStakeHolders(address[] memory wallets, uint256[] memory amounts, uint8[] memory shTypeIndexes) public onlyOwner {\n        // require amounts and wallets same length\n        require(wallets.length == amounts.length && \n            wallets.length == shTypeIndexes.length &&\n            amounts.length == shTypeIndexes.length, \"Wallets, amounts, indexes length are different\");\n\n        for(uint i = 0; i < wallets.length; i++) {\n            address _wallet = wallets[i];\n            uint256 _amount = amounts[i];\n            uint8 _shTypeIndex = shTypeIndexes[i];\n            \n            // require found type index on types array\n            require(types[_shTypeIndex] != 0, \"StakeHolder not found\");\n            uint256 restrictedDays = types[_shTypeIndex];\n\n            uint256 restrictedUntil = releaseDate + restrictedDays;\n            \n            DistrubutionDetails memory distributionDetail = DistrubutionDetails(restrictedUntil, _amount);\n\n            distribution[_wallet] = distributionDetail;\n            emit AddedStakeHolder(_amount, _wallet, restrictedUntil);\n        }\n    }\n\n    // override the before tranfer\n    /* function _beforeTokenTransfer(address sender, address recipient, uint256 amount) internal virtual override {\n        if(distrbution[sender]){\n            uint256 restrictedUntil = distrbution[sender];\n            \n        }\n    } */\n    // withdraw gas\n\n    function mintToWallet(address address_, uint256 amount)\n        public\n        payable\n        onlyOwner\n    {\n        _mint(address_, amount);\n    }\n\n    function burnToken(address address_, uint256 amount)\n        public\n        payable\n        onlyOwner\n    {\n        _burn(address_, amount);\n    }\n}\n",
  "sourcePath": "/home/esferasoluciones/Documents/projects/ifesa/node/ethereum/contracts/ancon/AnconToken.sol",
  "compiler": {
    "name": "solc",
    "version": "0.8.11+commit.d7f03943.Emscripten.clang"
  },
  "schemaVersion": "3.4.4",
  "updatedAt": "2022-02-13T07:44:57.598Z",
  "networkType": "ethereum",
  "devdoc": {
    "kind": "dev",
    "methods": {
      "allowance(address,address)": {
        "details": "See {IERC20-allowance}."
      },
      "approve(address,uint256)": {
        "details": "See {IERC20-approve}. Requirements: - `spender` cannot be the zero address."
      },
      "balanceOf(address)": {
        "details": "See {IERC20-balanceOf}."
      },
      "decimals()": {
        "details": "Returns the number of decimals used to get its user representation. For example, if `decimals` equals `2`, a balance of `505` tokens should be displayed to a user as `5.05` (`505 / 10 ** 2`). Tokens usually opt for a value of 18, imitating the relationship between Ether and Wei. This is the value {ERC20} uses, unless this function is overridden; NOTE: This information is only used for _display_ purposes: it in no way affects any of the arithmetic of the contract, including {IERC20-balanceOf} and {IERC20-transfer}."
      },
      "decreaseAllowance(address,uint256)": {
        "details": "Atomically decreases the allowance granted to `spender` by the caller. This is an alternative to {approve} that can be used as a mitigation for problems described in {IERC20-approve}. Emits an {Approval} event indicating the updated allowance. Requirements: - `spender` cannot be the zero address. - `spender` must have allowance for the caller of at least `subtractedValue`."
      },
      "increaseAllowance(address,uint256)": {
        "details": "Atomically increases the allowance granted to `spender` by the caller. This is an alternative to {approve} that can be used as a mitigation for problems described in {IERC20-approve}. Emits an {Approval} event indicating the updated allowance. Requirements: - `spender` cannot be the zero address."
      },
      "name()": {
        "details": "Returns the name of the token."
      },
      "owner()": {
        "details": "Returns the address of the current owner."
      },
      "renounceOwnership()": {
        "details": "Leaves the contract without owner. It will not be possible to call `onlyOwner` functions anymore. Can only be called by the current owner. NOTE: Renouncing ownership will leave the contract without an owner, thereby removing any functionality that is only available to the owner."
      },
      "symbol()": {
        "details": "Returns the symbol of the token, usually a shorter version of the name."
      },
      "totalSupply()": {
        "details": "See {IERC20-totalSupply}."
      },
      "transfer(address,uint256)": {
        "details": "See {IERC20-transfer}. Requirements: - `recipient` cannot be the zero address. - the caller must have a balance of at least `amount`."
      },
      "transferFrom(address,address,uint256)": {
        "details": "See {IERC20-transferFrom}. Emits an {Approval} event indicating the updated allowance. This is not required by the EIP. See the note at the beginning of {ERC20}. Requirements: - `sender` and `recipient` cannot be the zero address. - `sender` must have a balance of at least `amount`. - the caller must have allowance for ``sender``'s tokens of at least `amount`."
      },
      "transferOwnership(address)": {
        "details": "Transfers ownership of the contract to a new account (`newOwner`). Can only be called by the current owner."
      }
    },
    "version": 1
  },
  "userdoc": {
    "kind": "user",
    "methods": {
      "distribution(address)": {
        "notice": "distribution: wallet => DistrubutionDetails type 1. staff: 6 months type 2. advisors: 3 months"
      }
    },
    "version": 1
  }
}